:100000000C943E000C945B000C945B000C945B0021
:100010000C945B000C945B000C9462000C945B00ED
:100020000C945B000C945B000C945B000C945B00E4
:100030000C945B000C945B000C945B000C945B00D4
:100040000C945B000C945B000C945B000C945B00C4
:100050000C9476020C945B000C945B000C945B0097
:100060000C945B000C9471050C945B000C945B0089
:100070000C945B000C945B000C945B0011241FBE7D
:10008000CFEFCDBFDFE3DEBF18E3A0E0B8E3E2EAE5
:10009000F2E202C005900D92A43CB107D9F729E322
:1000A000A4ECB8E301C01D92A039B207E1F70E94A9
:1000B00084010C9438110C9400000E9411030E94DA
:1000C000110208951F920F920FB60F9211242F93D1
:1000D0003F934F935F936F937F938F939F93AF93D0
:1000E000BF93EF93FF930E94560282E080934301F7
:1000F000FF91EF91BF91AF919F918F917F916F9100
:100100005F914F913F912F910F900FBE0F901F90D5
:1001100018950F931F93CF938B01C42F0E94E20475
:100120006C2F70E0C8010E9447050E946D050E9477
:100130001F058130E1F3CF911F910F910895CF9367
:10014000DF93C4EFD8E31882198242E0BE0180E257
:100150000E94890084E18883198242E0BE0180E226
:100160000E94890081E08883198242E0BE0180E21A
:100170000E94890085E18883198242E0BE0180E205
:100180000E948900DF91CF91089561110BC0E4EFC7
:10019000F8E394E19083818342E0BF0180E20E9412
:1001A00089000895E4EFF8E395E19083818342E0CC
:1001B000BF0180E20E948900089560E080E00E9413
:1001C000C50061E080E00E94C5000895CF93C0E0C3
:1001D0004DC08C2F90E00E9467028823D4F48C2FAE
:1001E00090E0880F991FFC01E550F74C2081318188
:1001F000DC01AD5FB64C2D933C9321E030E02083D1
:100200003183FC01E050F84C60E080810E94C50021
:100210000CC060E080E00E94C500EC2FF0E0EE0F23
:10022000FF1FE550F74C108211828C2F90E0FC01EB
:10023000EE0FFF1FE550F74C208131812130310551
:10024000A1F4880F991FFC01ED5FF64C808191812C
:10025000892B59F4C11105C084E792EA0E94081164
:1002600004C08CE792EA0E940811CF5FC23008F404
:10027000B0CFCF910895CF93DF9380E090E00E94BC
:100280006702C82FC07882E090E00E946702D82FF2
:10029000D07883E090E00E9467028078CC2319F147
:1002A000DD2309F1811103C01EC0019602C080E068
:1002B00090E0803325E79207C4F384E992EA0E9434
:1002C0000811E0E0F8E38081228194813681822B5D
:1002D000892B60E0832B0E94C50081E090E0809331
:1002E000F7389093F8388091F7389091F838019763
:1002F00041F460E080E00E94C5001092F73810924F
:10030000F838DF91CF9108950E945D000E949F0010
:100310000E94DD000E9419020E94E6000E943B013B
:10032000F9CFE0E3F4E08081877F80838081887F5C
:1003300084608083E1E3F4E08081877F8083808133
:10034000887F84608083E5E1F4E08081877F80831B
:100350008081887F84608083E4E1F4E08081877F0E
:1003600080838081887F84608083E7E1F4E08081FE
:10037000877F80838081887F84608083E6E1F4E0EA
:100380008081877F80838081887F846080830895D7
:1003900081E08093C73808958F5F8093C5380895B2
:1003A000CF93DF9385E498E30E94C40F86E499E33A
:1003B0000E940A10C0E0D0E00BC0BE0185E498E3C3
:1003C0000E947C10BE0185E498E30E949B10219658
:1003D000C830D10590F3C0E0D0E00FC0AE01440FAB
:1003E000551F440F551F4C0F5D1F4B5E564C6C2F15
:1003F0008BE198E30E9437062196C830D10570F34F
:1004000088E098E30E94250ADF91CF9108959091AA
:10041000410192FDFCCF90E080934A0190934B0103
:10042000089580E20E9407020E9491010E94D0017B
:1004300008958091C838813051F468EC71E085E40A
:1004400098E30E941410811102C01092C838809164
:10045000C738813051F51092C7380E94460E81117D
:1004600013C08BE198E30E945606882319F081E0BF
:100470000E94CC0188E098E30E94650A882339F045
:1004800082E00E94CC0103C080E00E94CC01E09198
:100490001B38F0911C388081882324F481E08093FC
:1004A000C838089581E08093C63808958091143942
:1004B0008F5F80931439843148F01092143981E0B1
:1004C0008093C83884E190E00E942C060895E09162
:1004D0001F38F09120389C01220F331F820F931F89
:1004E000880F991FE80FF91F808108951F920F92BE
:1004F0000FB60F9211242F933F934F935F936F93F7
:100500007F938F939F93AF93BF93EF93FF930E943B
:10051000DC10FF91EF91BF91AF919F918F917F91EF
:100520006F915F914F913F912F910F900FBE0F9060
:100530001F90189580E0089540E068ED81E690E016
:100540000E94950580E00895789480E0089580E009
:1005500008C0E82FF0E0E05FFB4F90819860908347
:100560008F5F8830B0F380E008C0E82FF0E0E05DF6
:10057000FB4F9081986090838F5F8830B0F380E06C
:1005800008C0E82FF0E0E05BFB4F9081986090831B
:100590008F5F8830B0F3089584B1877F84B9E3E337
:1005A000F4E08081877F808385B18B7F85B984B1BA
:1005B000846084B90E94A705089581B18B7F81B9B9
:1005C00080B1846080B9E2E1F4E08081877F80833C
:1005D00080818F7780838081887F8083A0E0B2E0F4
:1005E00011968C911197806111968C93119781B11E
:1005F0008D7F81B980B1826080B9E1E1F4E08081D2
:10060000877F808380818F7780838081887F8083CC
:1006100011968C911197806111968C930E94DB0446
:1006200008950E94A7020E949C020E9499050E94C0
:10063000CC020E94A4020E94A5050E94DD020E9435
:100640009A020895E0E1F8E08481886084838581DE
:1006500081608583E9ECF8E380818E7F8083138657
:100660008EE00895E9ECF8E380818E7F8083138625
:1006700080E00895E0E1F8E08481836084830E9453
:1006800032030895E9ECF8E38081886080838181FA
:1006900090E0880F991F81608093170884E0089587
:1006A0000E94420308950E9442030895E9ECF8E392
:1006B0008081886080838181880F8093170883E020
:1006C00008950E9456030895A9ECB8E38C91877FA2
:1006D0008C9382E01B968C931B975096ED91FC9126
:1006E00051975C968D919C915D970995823019F098
:1006F000833021F006C00E94530308950E946103D5
:1007000008950E943A030895E0E1F8E084818B7F28
:10071000848384E00895E0E1F8E084818B7F848322
:1007200083E00895E0E1F8E084818460848384813B
:10073000836084830E9432030895E0E1F8E08481BD
:100740008460848388E008958091150884FF19C02F
:10075000A9ECB8E35296ED91FC9153975E968D917A
:100760009C915F970995823019F0833021F006C083
:100770000E94530308950E94610308950E943A0362
:100780000895E9ECF8E38081877F8083A281B381BB
:10079000CD010196828393838C9180931808848184
:1007A0009581019784839583892B11F083E00895C7
:1007B00085E00895CF93DF93E9ECF8E38081877FAC
:1007C000808384819581019731F4E0E1F8E08481B0
:1007D0008460848305C0E0E1F8E084818B7F8483BA
:1007E000E9ECF8E384819581019784839583892BD3
:1007F000A9F0DF01C281D381E0E1F8E08085888340
:1008000012968D919C911397019612968D939C93BD
:10081000139784818260848384E026C0A9ECB8E3C6
:100820001296ED91FC91139780911808808312968F
:100830008D919C911397019612968D939C9313978B
:100840008C9184608C931C96ED91FC911D97589629
:100850008D919C91599709958250823018F40E948D
:100860009D0302C00E949203DF91CF910895809171
:10087000150884FF19C0A9ECB8E35296ED91FC91DC
:1008800053975E968D919C915F970995823019F0F0
:10089000833021F006C00E94530308950E94610333
:1008A00008950E943A030895A9ECB8E38C918460FE
:1008B0008C931C96ED91FC911D9758968D919C916F
:1008C00059970995833039F0843041F0823049F4EA
:1008D0000E94530308950E94610308950E94A40397
:1008E00008950E943A030895E0E1F8E08581886068
:1008F0008583A9ECB8E382E01B968C931B971E9628
:10090000ED91FC911F975A968D919C915B9709955B
:10091000823019F0833021F006C00E9453030895FD
:100920000E94610308950E9422030895E0E1F8E027
:10093000848188608483858181608583E9ECF8E324
:1009400080818E7F808382E083878EE00895CF93BD
:10095000DF93E0E1F8E08581806C85838091C93880
:1009600083FF07C08091150884FF03C08FE0809348
:10097000D3388091150883FF03C080E18093D3387A
:100980008091150882FF03C081E18093D338C9ECC0
:10099000D8E3EA85F0E0EE0FFF1FE057F74C019037
:1009A000F081E02D09958A87DF91CF91089581E04C
:1009B000089585E00895E0E1F8E08FE5868381EC15
:1009C000838308959091C93891FD37C0E9ECF8E32D
:1009D0008183892F8E7F82609EE0928724EF31E0B1
:1009E00020873187877F8460808387ED94E08487C8
:1009F0009587108E118E86879787128E138E808B27
:100A0000918B148E158E828B938B168E178E89ED9B
:100A100094E0848B958B10A211A2E0E1F8E0848130
:100A2000886084838581816085838581806C8583EE
:100A30008381806C838380E0089581E008958091B4
:100A4000150882FF07C0E9ECF8E380818E7F808380
:100A500082E083878091C93880FD17C0E9ECF8E314
:100A60008D7F80838FEF8183A0E1B8E015968C9114
:100A70001597806C15968C93159713968C911397F8
:100A80008F7313968C938385089581E008959C015C
:100A90009091C93892FF09C0E9ECF8E322833383CF
:100AA00064837583892F8B7F808308959091C938E3
:100AB00090FD11C0E9ECF8E391609083882321F068
:100AC00081E08093D33803C082E08093D3380E94C2
:100AD000A70480E0089581E0089580E00E94560513
:100AE00008951F920F920FB60F9211242F933F93E8
:100AF0004F935F936F937F938F939F93AF93BF9326
:100B0000EF93FF930E94A704FF91EF91BF91AF91E4
:100B10009F918F917F916F915F914F913F912F9115
:100B20000F900FBE0F901F901895FC0164BF40837B
:100B30000895809141018111FCCFE0E4F1E081E86A
:100B4000808382E0828380E0089580E00895E0E081
:100B5000F8E083E298E08087918780EC868384EBDD
:100B600098E380938C3990938D3980E0089590912B
:100B7000040895FFFCCF8093020808950E94B705F2
:100B800080E090E00895CF92DF92FF920F931F9341
:100B9000CF93DF93EC01AE81BF81EB01CC0FDD1F62
:100BA000C60FD71FCA0FDB1FFA80FC014481558195
:100BB000E6E0E69F9001E79F300D11248A01020FC5
:100BC000131FF80122813381F90121813281F8015B
:100BD00004811581201B310BE8812E1B3109EC01AA
:100BE000EA81FB8100811181FA0140E050E0401769
:100BF000510739F146175707F9F012968C91129761
:100C0000F8121AC0808185588230E8F0C480D580FF
:100C100082819381EC0189819A81C816D90660F49A
:100C20008C199D09CC91D0E0C817D90728F48C1BEA
:100C30009D0B2817390738F04F5F5F4F1396369694
:100C4000D6CF80E001C081E0DF91CF911F910F915D
:100C5000FF90DF90CF9008952091ED383091EE38DD
:100C6000820F931F8093ED389093EE38089500978C
:100C7000D9F041155105C1F026E0629FB001112461
:100C8000DC011496ED91FC911597E60FF71F21E01A
:100C9000208314968D919C911597FC01E60FF71F08
:100CA0004283538380E008958BE008952F923F9212
:100CB0004F925F926F927F928F929F92AF92BF926C
:100CC000CF92DF92EF92FF920F931F93CF93DF9318
:100CD000009709F47EC3EC01A12CB12C812C912C3E
:100CE000212CD12C5524539433E0C32E45E8642E97
:100CF00056E8752E62E0362E78E0472EEA81FB81B9
:100D0000808191818816990608F0A6C17501EE0CC4
:100D1000FF1CEC81FD81EE0DFF1DA281B3819C9132
:100D20009E7109F050820C811D810E0D1F1DD8018E
:100D30008C91843009F49EC038F48230D1F008F0F0
:100D400045C0813059F081C1853809F4BFC086386B
:100D500009F4F5C0873009F078C136C1911167C137
:100D6000F80130828C819D81FC01EE0DFF1D4182D6
:100D70005EC1D80111962C911197222329F1129668
:100D8000ED91FC911397253018F0818192810EC06E
:100D9000D80114968D919C911597418152818417A9
:100DA000950769F04817590730F4019714968D9309
:100DB0009C93159704C00196F80184839583215074
:100DC000D80111962C9333C1F8012DC1D801149686
:100DD0002D913C9115971296ED91FC9113974181BD
:100DE00052812417350709F430C18E819F81421743
:100DF0005307F8F4EA81FB81241B350BDC01AA0DB3
:100E0000BB1D8C9190E0058002C0959587950A9452
:100E1000E2F799272817390708F417C18481882336
:100E200009F413C187E0F8018083EA81FB81248102
:100E30001AC0FC01EA0DFB1D421B530B808190E0A0
:100E40004817590708F401C18281882331F0B401A1
:100E5000CE010E94C3058111F8C0E4E0D801EC93F3
:100E6000EA81FB8122818C819D81FC01EE0DFF1DB9
:100E70002183DDC0D80114962D913C9115971296CF
:100E8000ED91FC911397818192818217930708F469
:100E9000BBC0EE81FF81EA0DFB1D821B930B2081FD
:100EA00030E02817390708F0C5C08281882331F067
:100EB000B401CE010E94C3058111C7C0F801818130
:100EC000882309F46AC081508183B1C0E881F98127
:100ED000AA81BB8118968C918383EC81FD81EE0DF4
:100EE000FF1D44815581A281B38111968D919C9102
:100EF000129784179507C0F0AE81BF81AA0DBB1D64
:100F00006C91262F30E011967C917F5F02C0359561
:100F100027957A95E2F7841B950B621B262F30E00C
:100F20002817390708F48FC07082EA81FB8122817B
:100F30008C819D81FC01EE0DFF1D218342C0D801F3
:100F400014966D917C9115971296ED91FC911397E3
:100F5000218132812617370758F411968C91119709
:100F6000811102C0CC926FC08150F80181836BC0A7
:100F7000EE81FF81EA0DFB1D8081482F50E09181B9
:100F80009F5F02C0559547959A95E2F7261B370B50
:100F9000841B90E08217930760F4D8016C92EA8179
:100FA000FB8123818C819D81FC01EE0DFF1D21833E
:100FB0004AC0F8018181811102C0C08244C08150C1
:100FC00081832224239433C0F80124813581028057
:100FD000F381E02D818192818217930758F5281BB8
:100FE000390BEE81FF81EA0DFB1D808190E0EA81E3
:100FF000FB81058002C0959587950A94E2F79927B1
:101000002817390718F4D801CC9216C0F80181814D
:1010100081110BC050828C819D81FC01EE0DFF1D62
:101020000280F381E02DC08210C081508183DD24D5
:10103000D3940BC0F801C0828C819D81FC01EE0D20
:10104000FF1D118202C022242394FFEF8F1A9F0AF2
:1010500083E0A80EB11C52CEE881F981808187FF20
:1010600023C040E050E020E030E0EA81FB81808155
:1010700091812817390798F4EC81FD81E40FF51F61
:10108000A281B3818C9180FD05C09081977F11F082
:1010900081608C932F5F3F4F4A5F5F4FE6CFE881BF
:1010A000F98180818F778083D11007C0E881F98131
:1010B00021106FC080818E7F6EC0EA81FB818185A7
:1010C0008823A1F3E881F981808180688083EA81A7
:1010D000FB818185813051F740E050E020E030E035
:1010E00096E0D92EEA81FB8160817181261737074E
:1010F000E8F60C811D81FA01EE0FFF1FE00FF11FD2
:101100008081982F977FA1F1853811F08330B1F558
:10111000EE80FF80D701A40FB51F1296BC90BB20B4
:1011200039F180E090E0C12C86179707F8F4281772
:101130003907D1F0D89ED001D99EB00D1124A00F4F
:10114000B11FAC91A43011F0A63871F4DC01AA0FE4
:10115000BB1FA80FB91FAE0DBF1D1296AC91BA12DE
:1011600003C0CB01CC24C3940196DECFC11006C0CE
:101170000280F381E02D80818E7F05C00280F381A3
:10118000E02D8081816080832F5F3F4F4D5F5F4FF7
:10119000A9CF8081816080838091ED389091EE3875
:1011A000E881F98121813281A90148535F4F4817B5
:1011B000590738F4821B930BAA24A394A3E0BA2EF8
:1011C00044C08217930710F080E004C1821B930B88
:1011D0000197893C9105C0F3EFCF885C9109E881C4
:1011E000F9812181328128533F4F2183328323812A
:1011F000211196C02481222311F021502483E881FB
:10120000F9812581222311F0215025838A809B803A
:10121000D40116962C91169721111BC08A809B80B1
:10122000F4012781211148C0EA81FB812381222317
:1012300061F020E030E0A0E0B0E0EA81FB81408195
:101240005181A417B50708F46EC0893C910528F6B2
:10125000BBCF08811981F80124812111DFCFED90E6
:10126000FC9060E070E040E050E04E155F05F1F06A
:10127000EC81FD81E60FF71F2081233011F028302B
:1012800081F424813581C280D380D6011196CD901E
:10129000DC9012972C153D0520F42F5F3F4F2483DF
:1012A00035834F5F5F4F6A5F7F4FDFCFF401268149
:1012B000D80114962C93B2CF08811981D8011596C4
:1012C0002C912111B1CFE080F18060E070E040E02E
:1012D00050E04E155F05F1F0EC81FD81E60FF71F40
:1012E0002081233011F0283081F424813581C2809F
:1012F000D380D6011196CD90DC901297C216D306FA
:1013000020F421503109248335834F5F5F4F6A5F9A
:101310007F4FDFCFF4012781D80115962C9384CF1E
:101320002150238381CFA901440F551FEC81FD81FA
:10133000E40FF51F6081653809F047C061816623BD
:1013400019F06150618341C0A0826C817D81FB01F5
:10135000E40FF51F0280F381E02DB082EE81FF8162
:10136000E20FF31FD280DD2081F140E050E000E089
:1013700010E0EA81FB81608171810617170728F56B
:10138000EE81FF81E40FF51F6281D61219C0BA0108
:10139000660F771FEC81FD814F01860E971EF401C9
:1013A000E280F380F701F080F0FE0AC0F401A08231
:1013B000EC81FD81E60FF71F0280F381E02DB08202
:1013C0000F5F1F4F4D5F5F4FD4CF11962D5F3F4F83
:1013D00034CF8BE0DF91CF911F910F91FF90EF9071
:1013E000DF90CF90BF90AF909F908F907F906F9045
:1013F0005F904F903F902F9008959C01611571056B
:1014000009F14F5F37FD06C0442321F04150220F00
:10141000331FF8CF77FD04C04F5F660F771FFACFF9
:1014200080E090E0442381F097FD0CC0880F991F65
:1014300041502617370718F0261B370B0196769573
:101440006795F0CF8FEF9FEF0895CF93DF93FC0167
:10145000892BB9F1248135812115310591F146811E
:1014600057814115510569F1A081B1811C9290E02D
:10147000A281B38112968C91981708F5D90189E061
:10148000989FA00DB11D112411961C921197EA018D
:1014900088E0989FC00DD11D11248D8112968C93E8
:1014A000129713961D921C92149715961D921C92DA
:1014B000169717961D921C9218979F5FD9CF80E0C0
:1014C00001C08BE0DF91CF9108952F923F924F9210
:1014D0005F926F927F928F929F92AF92BF92CF92C4
:1014E000DF92EF92FF920F931F93CF93DF93CDB7CD
:1014F000DEB76197CDBFDEBFFC01009709F4DCC207
:10150000E480F580EA86FB86EF2809F4D5C2E68000
:10151000F780E886F986EF2809F4CEC2A281B3816C
:101520004D905C904114510409F4C6C28E839F8390
:1015300000E01A82912C16E0812EAE81BF811296B6
:10154000ED91FC9113978281981608F0B0C26884DF
:10155000798428E0929E600C711C1124D3011196AD
:101560004D915C9112971396AC907A01EA0CF11CA4
:10157000CA0160E08E159F0570F4889EF001899E77
:10158000F00D1124E40DF51D2081253811F4C7015B
:1015900061E00196EFCF849EF001859EF00D11244D
:1015A000EC83FD833497E40DF51D26E0A29E5001E7
:1015B00011241A0170E0188A198A2E143F0408F0C9
:1015C0004FC086819781DC0111962D913C91129735
:1015D00080859185281B390B1216130614F020E024
:1015E00030E024163506A9F4D3018C918130F9F44A
:1015F0006F01CA0CDB1CD6018D919C91DC01119608
:101600008D919C911297D6011296CD90DC901397F4
:1016100009C080819181DC0111968D919C91129776
:10162000C280D3808C199D091816190614F080E029
:1016300090E0280F391FD30116968D919C91179732
:101640002817390740F0888999898217930710F481
:10165000288B398B71E09FEF291A390A3696ADCF66
:10166000711101C060E0A9E09A9E90011124EA8402
:10167000FB84E20EF31EEE86FF86D7018C91AE81CD
:10168000BF811496ED91FC911597B82FB170BD876D
:1016900080FF1EC07F01E20EF31ED7011796CD908A
:1016A000DC901897C601880F991F8C0D9D1DA88985
:1016B000B9898A0F9B1F9695879596958795D7012F
:1016C00017968D939C931897772361F061E00AC079
:1016D000CF01820F931FE888F988DC011796ED92FD
:1016E000FC921897D301BC91B983B23008F0D4C1F1
:1016F000D30114961C91103D08F0CEC1611105C0B4
:10170000E20FF31F17821086C8C1F301F381FB8338
:10171000E12EE2949FE0E922EC86AC80BD80A40C2F
:10172000B51CF501BA01212C312C20E030E08B8171
:10173000E82EF12C6A01CE0CDF1C6C157D05B0F48F
:10174000A281B38111968D919C911297A481B5814C
:101750008A1B9B0B181619062CF42816390614F44C
:101760001C019B016F5F7F4F3696E7CF42175307EF
:1017700079F59981913009F0A1C18C9CF0018D9C83
:10178000F00D11243697E40DF51DA281B381119659
:101790006D917C91129784819581681B790BEC8106
:1017A000FD813696E40DF51DA281B38111968D91D0
:1017B0009C9112970480F581E02D8E1B9F0B97FF63
:1017C00002C080E090E0861797070CF47BC112C03E
:1017D000829EF001839EF00D11243697E40DF51DD5
:1017E000A281B38111966D917C911297848195812C
:1017F000681B790B90E077FF02C060E070E0A1E029
:10180000CA1AD1082C153D0581F4B981B13029F5EA
:10181000D5011296ED91FC911397C180D280149658
:101820000D90BC91A02DF60114C0F90131968E9E49
:10183000D0018F9EB00D1124A40DB51D1296ED910F
:10184000FC9113970180F281E02D14960D90BC91CC
:10185000A02DEA1BFB0BF7FF02C0E0E0F0E0BB812C
:10186000B03128F0B4E0AB2E88E0B82E03C0A12C34
:10187000ACE0BA2E913011F4670103C0241B350B84
:1018800069010B2C02C0CC0CDD1C0A94E2F76E1728
:101890007F07A8F0C1018E1B9F0B9C012E1B3F0BE5
:1018A000620F731F4B2D0E94FD0921E030E002C042
:1018B000220F331FBA94E2F7821B930B0CC0CF01A7
:1018C000861B970BF101E61BF70BBF01680F791F11
:1018D0004B2D0E94FD098C0D9D1DFB81F33060F0A6
:1018E0002981213019F44A2DB70104C0B701615094
:1018F00071094A2D0E94FD09813030E1930710F0F3
:1019000080E090E1E980E11017C01F70A9F028E2A3
:10191000129FA00111248417950718F0841B950BC2
:1019200002C080E090E0440F551F60E070E1641B4E
:10193000750B4CE00E94FD092CE030E0EC842E1980
:10194000310961E070E002C0660F771FEA94E2F7A8
:10195000FB01319702C0969587952A95E2F7E81723
:10196000F90708F4CF01FD84FF20D9F1AE85BF85CA
:1019700013964D915C9114979C01241B350BB981F2
:10198000B130A9F4DB01B695A79537FF0AC0B19530
:10199000A195B1092A173B070CF096C0260F371FF7
:1019A00006C0A217B3070CF095C0261B370B2130D9
:1019B0003105C1F02F3F6FEF3607A1F037FF09C0A7
:1019C0003195219531093695279531952195310924
:1019D00002C036952795240F351FAF0142235323AC
:1019E00001C0AC01AE85BF8513968D939C9314976F
:1019F000F301A581EE85FF8565817681F301248160
:101A0000CA01861B970B30813130E1F422952F708B
:101A1000E1E0F0E002C0EE0FFF1F2A95E2F79F0120
:101A20003695279597FF09C0319521953109821781
:101A3000930754F48E0F9F1F05C028173907ACF485
:101A40008E1B9F0B97FF11C0919581959109EE8593
:101A5000FF85228130E02817390714F080E01AC092
:101A6000EE85FF85A18312820BC0EE85FF85218163
:101A700030E02817390794F7EE85FF851182A2839D
:101A80004617570759F3AE85BF8515964D935C935E
:101A9000169782E0816802C002E080E0EE85FF8553
:101AA00080838178EA80E82AEA82939446CDED919A
:101AB000FC91EA80E08213C00BE011C060E070E0AE
:101AC00090E09DCE91E09BCE2F3F6FEF360709F05F
:101AD00077CF88CF2130310509F070CF83CF802FA9
:101AE0006196CDBFDEBFDF91CF911F910F91FF9027
:101AF000EF90DF90CF90BF90AF909F908F907F90AE
:101B00006F905F904F903F902F9008958091F238A2
:101B10009091F338A0918639B0918739ED91FC917D
:101B200011974081518125E0289FB001299F700DB8
:101B3000112420E030E084179507A8F41496ED9165
:101B4000FC911597E20FF31FE60FF71FE0812B5F63
:101B50003F4FE0FD02C00196EECF8093F2389093A4
:101B6000F33880E008951092F2381092F33881E053
:101B70000895BC01E0918639F09187399C0183E09A
:101B8000220F331F8A95E1F7A281B381A20FB31F01
:101B900012969C91129713968C9190932A0680939B
:101BA0002B06A281B381A20FB31F9C9111968C9139
:101BB000909326068093270695E0969FA001979F15
:101BC000500D1124A481B581A40FB51F13968C91DB
:101BD00080931A06A481B581A40FB51F14968C9129
:101BE00080931B06A481B581A40FB51F8C9181FD44
:101BF0009C9384819581DC01A40FB51F8C918C711D
:101C000069F4A281B381A20FB31F1696AC91A2957D
:101C1000AF70B0E0A456BD458C9101C08FE38093B6
:101C20001C06A281B381A20FB31F14968C918B3135
:101C300010F48C5F01C08FE180930506A281B3810F
:101C4000A20FB31F17968C9180930106A281B381D6
:101C5000A20FB31F15968C9182958F7080931906F1
:101C600082819381FC01E20FF31F85818F70806177
:101C7000809302068091180683608093180681E89D
:101C80008093000681E08093080608953F924F926A
:101C90005F926F927F928F929F92AF92BF92CF92FC
:101CA000DF92EF92FF920F931F93CF93DF93809178
:101CB000F138882309F448C1A0918639B091873959
:101CC000C0908839D090893900E010E060E070E081
:101CD000E12CF12C80E033243394D1E84D2E88247C
:101CE0008A94992493946D907C901197F3012081AC
:101CF0003181E216F30608F023C1E60129913991FA
:101D00006E011496ED91FC911597E60FF71F408137
:101D10004C7150E05695479556954795411551059C
:101D200021F041305105B9F002C11296CD91DC91FC
:101D30001397C00FD11F4E814F709F81491710F428
:101D4000941B01C090E002C0369527959A95E2F762
:101D500021833283EDC012964D915C911397400F11
:101D6000511FEA010F8002C0369527950A94E2F7C9
:101D700021833283A380B4802115D2E03D0720F077
:101D80002F5F314091E005C0A401421B530B9A0123
:101D900090E0E3015A80D0E45D1205C036952795A6
:101DA000992319F009C0992339F04FEFA416B4060E
:101DB00031F440828EE007C07724739401C0712C07
:101DC0002A30310590F41496ED91FC911597E60FA9
:101DD000F71F908197FF30821496ED91FC91159733
:101DE000E60FF71FA382B482A3C0E501CD2FDD2744
:101DF000C295CF709C2FA50144275F70652EA50169
:101E0000407F5527529542954F7045275F70452773
:101E10005A2D5F70A52EC43030F09370D695C795BB
:101E2000D695C7959C0F71103CC050E8550D5230A7
:101E300010F456E007C053E005C0951768F49F5FA3
:101E40002F5C3109203D3105C0F706C0CFE06C168C
:101E500049F063942551310926313105B8F7DFE0A7
:101E60006D120EC0951720F49F5FD5E06D2E08C04F
:101E7000CFE06C2E05C04F3049F04F5F2250310942
:101E800023303105C0F74F3009F065C04FE06416CC
:101E900081F1639445E05FC0992361F091502F5C1C
:101EA0003109203D3105C0F705C0662041F06A9434
:101EB0002551310926313105C0F761100DC0992334
:101EC00021F091505AE0652E07C0612C05C04423D3
:101ED00041F041502250310923303105C0F7411102
:101EE00010C06620E9F16A944AE023303105C8F653
:101EF00008C059132FC02330310540F14FE0A42E04
:101F00004FE0943018F0990F990F9950C0E14C9F11
:101F1000A001112456294A29C92FD0E0DC2FCC2753
:101F2000D295D07F4C2B5D2B4383548301C0FFCFD0
:101F3000DFEFED1AFD0A6B5F7F4F085F1F4FD3CEB7
:101F400092E09093F1380EC083E00CC04FE02FE098
:101F5000A22ED7CF4FE02330310508F073CFD1CF79
:101F600040E0CFCFDF91CF911F910F91FF90EF9085
:101F7000DF90CF90BF90AF909F908F907F906F90A9
:101F80005F904F903F900895CF93DF930097E1F1DA
:101F9000DC01ED91FC91A081B18160E070E040E056
:101FA00050E020E030E04A175B0799F0EC01EA814D
:101FB000FB81E60FF71FC081D1810280F381E02D04
:101FC000EC2BFD2B2E2B3F2B4F5F5F4F685F7F4F1E
:101FD000EACF21153105D1F08091F138811108C087
:101FE000209322063093230681E08093F1380AC0C3
:101FF00080912206822B8093220680912306832BD8
:102000008093230680E003C08BE001C082E0DF9173
:10201000CF910895009731F0809388399093893952
:1020200080E008958BE0089561157105A1F1009796
:1020300091F12091F138222381F1243081F18093B4
:102040008639909387396093EF387093F038109207
:102050001806DC01ED91FC912281203439F420EC4A
:102060002093180620911806206205C0203841F4FC
:102070002091180628622093180610921E0613C09D
:10208000213879F42091180628622093180626E852
:1020900020931E0608C08BE0089583E0089581E038
:1020A000089582E0089510920006DC01ED91FC9104
:1020B0008481803108F080E18093030681E0809381
:1020C0000B0680930A068093C2381092F238109261
:1020D000F3380E94860D81110BC084E08093F138A3
:1020E0008091F2389091F3380E94B90D80E0089504
:1020F00082E08093F13808950097C9F0DC01ED91FA
:10210000FC911197208131812617370790F045E027
:10211000469F9001479F300D11241496ED91FC913C
:102120001597E20FF31F81E0808380E008958BE034
:10213000089582E00895FC01892BD1F1A081B1813D
:102140008D919C91119786179707A0F112969C91FB
:102150000480F581E02D903459F485E0869FD0010C
:10216000879FB00D1124AE0FBF1F84E392E00DC016
:102170009058923080F485E0869FD001879FB00D03
:102180001124AE0FBF1F87E695E013968D939C93A5
:10219000149780E001C082E095E0969F9001979FA0
:1021A000300D1124E20FF31F908192609083089507
:1021B0008BE0089582E00895109200064091100689
:1021C000509111068091F2389091F3389C01220FC2
:1021D000331FE0918839F0918939E20FF31F408372
:1021E000518301968093F2389093F3380E94860DC4
:1021F000811109C084E08093F1388091F238909188
:10220000F3380C94B90DE091EF38F091F03809945F
:102210000F931F93CF93DF93E0918C39F0918D3919
:10222000238121FF1BC08C01D0E0C0E0F801819127
:102230008F0160918C3970918D39DB011896ED9189
:10224000FC911997882331F00995892B79F3DFEFF9
:10225000CFEFECCF8AE00995892B19F08FEF9FEF34
:1022600002C08D2F9C2FDF91CF911F910F91089568
:04227000F894FFCF10
:10227400436F6F6C202B0D00436F6F6C202D0D008E
:102284004469734F46460D004469735F4F4E0D0019
:0E2294005265736574460D003F1C0B05030177
:1022A2008000400020001000C43818383D39103832
:1022B200000400048A0814005639010E393B3856CE
:1022C2003923381401001401001401001401001410
:1022D20001011401011401011401010800040005A7
:1022E20000140514018B384B381539200008000002
:1022F20003000410000800000300040200080000AC
:102302000300040100080000030004200004000090
:102312000300041000040000030004020004000093
:102322000300040100040000030004080040300020
:10233200320342035603A403DA033704530361034F
:1023420050033A0384038B0392039D032203640325
:10235200740496040000000200000000BE050000A4
:042362000000010076
:00000001FF
